{
  "contractName": "NameStorage",
  "abi": [
    {
      "inputs": [
        {
          "internalType": "string",
          "name": "name",
          "type": "string"
        }
      ],
      "name": "setName",
      "outputs": [],
      "stateMutability": "nonpayable",
      "type": "function"
    },
    {
      "inputs": [],
      "name": "readName",
      "outputs": [
        {
          "internalType": "string",
          "name": "",
          "type": "string"
        }
      ],
      "stateMutability": "view",
      "type": "function"
    },
    {
      "inputs": [
        {
          "internalType": "string",
          "name": "name",
          "type": "string"
        }
      ],
      "name": "isNameExists",
      "outputs": [
        {
          "internalType": "bool",
          "name": "",
          "type": "bool"
        }
      ],
      "stateMutability": "view",
      "type": "function"
    }
  ],
  "bytecode": "0x608060405234801561001057600080fd5b50610928806100206000396000f3fe608060405234801561001057600080fd5b50600436106100415760003560e01c806339793ea914610046578063c47f002714610064578063d64b60de14610080575b600080fd5b61004e6100b0565b60405161005b91906104d2565b60405180910390f35b61007e6004803603810190610079919061063d565b61017e565b005b61009a6004803603810190610095919061063d565b610361565b6040516100a791906106a1565b60405180910390f35b60606000803373ffffffffffffffffffffffffffffffffffffffff1673ffffffffffffffffffffffffffffffffffffffff16815260200190815260200160002080546100fb906106eb565b80601f0160208091040260200160405190810160405280929190818152602001828054610127906106eb565b80156101745780601f1061014957610100808354040283529160200191610174565b820191906000526020600020905b81548152906001019060200180831161015757829003601f168201915b5050505050905090565b8061018881610361565b156101c8576040517f08c379a00000000000000000000000000000000000000000000000000000000081526004016101bf90610768565b60405180910390fd5b600082511161020c576040517f08c379a0000000000000000000000000000000000000000000000000000000008152600401610203906107d4565b60405180910390fd5b60008060003373ffffffffffffffffffffffffffffffffffffffff1673ffffffffffffffffffffffffffffffffffffffff1681526020019081526020016000208054610257906106eb565b905011156102d457600060016000803373ffffffffffffffffffffffffffffffffffffffff1673ffffffffffffffffffffffffffffffffffffffff1681526020019081526020016000206040516102ae9190610893565b908152602001604051809103902060006101000a81548160ff0219169083151502179055505b816000803373ffffffffffffffffffffffffffffffffffffffff1673ffffffffffffffffffffffffffffffffffffffff1681526020019081526020016000209080519060200190610326929190610396565b506001808360405161033891906108db565b908152602001604051809103902060006101000a81548160ff0219169083151502179055505050565b600060018260405161037391906108db565b908152602001604051809103902060009054906101000a900460ff169050919050565b8280546103a2906106eb565b90600052602060002090601f0160209004810192826103c4576000855561040b565b82601f106103dd57805160ff191683800117855561040b565b8280016001018555821561040b579182015b8281111561040a5782518255916020019190600101906103ef565b5b509050610418919061041c565b5090565b5b8082111561043557600081600090555060010161041d565b5090565b600081519050919050565b600082825260208201905092915050565b60005b83811015610473578082015181840152602081019050610458565b83811115610482576000848401525b50505050565b6000601f19601f8301169050919050565b60006104a482610439565b6104ae8185610444565b93506104be818560208601610455565b6104c781610488565b840191505092915050565b600060208201905081810360008301526104ec8184610499565b905092915050565b6000604051905090565b600080fd5b600080fd5b600080fd5b600080fd5b7f4e487b7100000000000000000000000000000000000000000000000000000000600052604160045260246000fd5b61054a82610488565b810181811067ffffffffffffffff8211171561056957610568610512565b5b80604052505050565b600061057c6104f4565b90506105888282610541565b919050565b600067ffffffffffffffff8211156105a8576105a7610512565b5b6105b182610488565b9050602081019050919050565b82818337600083830152505050565b60006105e06105db8461058d565b610572565b9050828152602081018484840111156105fc576105fb61050d565b5b6106078482856105be565b509392505050565b600082601f83011261062457610623610508565b5b81356106348482602086016105cd565b91505092915050565b600060208284031215610653576106526104fe565b5b600082013567ffffffffffffffff81111561067157610670610503565b5b61067d8482850161060f565b91505092915050565b60008115159050919050565b61069b81610686565b82525050565b60006020820190506106b66000830184610692565b92915050565b7f4e487b7100000000000000000000000000000000000000000000000000000000600052602260045260246000fd5b6000600282049050600182168061070357607f821691505b602082108103610716576107156106bc565b5b50919050565b7f4e616d6553746f726167653a206475706c696361746564206e616d6573000000600082015250565b6000610752601d83610444565b915061075d8261071c565b602082019050919050565b6000602082019050818103600083015261078181610745565b9050919050565b7f4e616d6553746f726167653a20656d707479206e616d65000000000000000000600082015250565b60006107be601783610444565b91506107c982610788565b602082019050919050565b600060208201905081810360008301526107ed816107b1565b9050919050565b600081905092915050565b60008190508160005260206000209050919050565b60008154610821816106eb565b61082b81866107f4565b9450600182166000811461084657600181146108575761088a565b60ff1983168652818601935061088a565b610860856107ff565b60005b8381101561088257815481890152600182019150602081019050610863565b838801955050505b50505092915050565b600061089f8284610814565b915081905092915050565b60006108b582610439565b6108bf81856107f4565b93506108cf818560208601610455565b80840191505092915050565b60006108e782846108aa565b91508190509291505056fea2646970667358221220c31c7c611fbfbc6fd5a9ce7c680d6713d07064a88c356fb528f2d0e2894a7ee864736f6c634300080e0033",
  "immutableReferences": {},
  "source": "// SPDX-License-Identifier: MIT\r\npragma solidity ^0.8.7;\r\n\r\ncontract NameStorage {\r\n    /**\r\n    * @dev Key: account, value: name\r\n     */\r\n    mapping(address => string) _accountNames;\r\n\r\n    /**\r\n    * @dev Key: name, value: whether the name is already in use\r\n     */\r\n    mapping(string => bool) _names;\r\n\r\n    /**\r\n    * @dev Assert the name is not being used.\r\n    * When duplicated names, or the name is the same as the sender's name,\r\n    * throw an error.\r\n    */\r\n    modifier nameNotDuplicated(string memory name) {\r\n        require(!isNameExists(name), \"NameStorage: duplicated names\");\r\n\r\n        _;\r\n    }\r\n\r\n    function setName(string memory name) external nameNotDuplicated(name) {\r\n        require(bytes(name).length > 0, \"NameStorage: empty name\");\r\n\r\n        // Remove original name from names\r\n        if (bytes(_accountNames[msg.sender]).length > 0) {\r\n            _names[_accountNames[msg.sender]] = false;\r\n        }\r\n\r\n        _accountNames[msg.sender] = name;\r\n\r\n        // Update in use status to true\r\n        _names[name] = true;\r\n    }\r\n\r\n    function readName() external view returns (string memory) {\r\n        return _accountNames[msg.sender];\r\n    }\r\n\r\n    function isNameExists(string memory name) public view returns (bool) {\r\n        return _names[name];\r\n    }\r\n}\r\n",
  "sourcePath": "D:\\repo\\name-service\\contracts\\NameStorage.sol",
  "compiler": {
    "name": "solc",
    "version": "0.8.14+commit.80d49f37.Emscripten.clang"
  },
  "schemaVersion": "3.4.7",
  "updatedAt": "2022-06-13T13:08:41.080Z",
  "devdoc": {
    "kind": "dev",
    "methods": {},
    "stateVariables": {
      "_accountNames": {
        "details": "Key: account, value: name"
      },
      "_names": {
        "details": "Key: name, value: whether the name is already in use"
      }
    },
    "version": 1
  },
  "userdoc": {
    "kind": "user",
    "methods": {},
    "version": 1
  }
}